{
  "transactions": [
    {
      "hash": "0x16644ecf50faa345b6d4024a110f85a55f0376dad3c4d6f356a57a88c0639aa9",
      "transactionType": "CALL",
      "contractName": null,
      "contractAddress": "0xa705cce8df361827f2d210b105a17e91c6fc964a",
      "function": "setMagicNumber(uint256)",
      "arguments": [
        "123456789"
      ],
      "transaction": {
        "from": "0x2e54a3f8beff45fa2017ec9d0f4bece23d82cda7",
        "to": "0xa705cce8df361827f2d210b105a17e91c6fc964a",
        "gas": "0xaadf",
        "value": "0x0",
        "input": "0x2ba2ed9800000000000000000000000000000000000000000000000000000000075bcd15",
        "nonce": "0xc",
        "chainId": "0x14a34"
      },
      "additionalContracts": [],
      "isFixedGasLimit": false
    },
    {
      "hash": "0xbb4ba6bd7cac766aeb91812f23858a2fb8867d9ffd99969b1dc5f5188d45f127",
      "transactionType": "CALL",
      "contractName": null,
      "contractAddress": "0xa705cce8df361827f2d210b105a17e91c6fc964a",
      "function": "setMagicString(string)",
      "arguments": [
        "Ab kare so aaj kar, aaj kare so kal, Ab kare so aaj kar, aaj kare so kal, Ab kare so aaj kar, aaj kare so kal, Ab kare so aaj kar, aaj kare so kal, Ab kare so aaj kar, aaj kare so kal, Ab kare so aaj kar, aaj kare so kal, Ab kare so aaj kar, aaj kare so kal, Ab kare so aaj kar, aaj kare so kal, Ab kare so aaj kar, aaj kare so kal, Ab kare so aaj kar, aaj kare so kal, Ab kare so aaj kar, aaj kare so kal"
      ],
      "transaction": {
        "from": "0x2e54a3f8beff45fa2017ec9d0f4bece23d82cda7",
        "to": "0xa705cce8df361827f2d210b105a17e91c6fc964a",
        "gas": "0x62419",
        "value": "0x0",
        "input": "0x080d1d1d000000000000000000000000000000000000000000000000000000000000002000000000000000000000000000000000000000000000000000000000000001954162206b61726520736f2061616a206b61722c2061616a206b61726520736f206b616c2c204162206b61726520736f2061616a206b61722c2061616a206b61726520736f206b616c2c204162206b61726520736f2061616a206b61722c2061616a206b61726520736f206b616c2c204162206b61726520736f2061616a206b61722c2061616a206b61726520736f206b616c2c204162206b61726520736f2061616a206b61722c2061616a206b61726520736f206b616c2c204162206b61726520736f2061616a206b61722c2061616a206b61726520736f206b616c2c204162206b61726520736f2061616a206b61722c2061616a206b61726520736f206b616c2c204162206b61726520736f2061616a206b61722c2061616a206b61726520736f206b616c2c204162206b61726520736f2061616a206b61722c2061616a206b61726520736f206b616c2c204162206b61726520736f2061616a206b61722c2061616a206b61726520736f206b616c2c204162206b61726520736f2061616a206b61722c2061616a206b61726520736f206b616c0000000000000000000000",
        "nonce": "0xd",
        "chainId": "0x14a34"
      },
      "additionalContracts": [],
      "isFixedGasLimit": false
    }
  ],
  "receipts": [
    {
      "status": "0x1",
      "cumulativeGasUsed": "0x41880d",
      "logs": [],
      "logsBloom": "0x00000000000000000000000000000000000000000000000000000000000000000000000000000000000000000000000000000000000000000000000000000000000000000000000000000000000000000000000000000000000000000000000000000000000000000000000000000000000000000000000000000000000000000000000000000000000000000000000000000000000000000000000000000000000000000000000000000000000000000000000000000000000000000000000000000000000000000000000000000000000000000000000000000000000000000000000000000000000000000000000000000000000000000000000000000000",
      "type": "0x2",
      "transactionHash": "0x16644ecf50faa345b6d4024a110f85a55f0376dad3c4d6f356a57a88c0639aa9",
      "transactionIndex": "0x12",
      "blockHash": "0x115ec2557c1f0775661e44e444c1be7e61da7d9900d863d334f3e29180e63f89",
      "blockNumber": "0x1dc9102",
      "gasUsed": "0x7bb6",
      "effectiveGasPrice": "0xf42a5",
      "from": "0x2e54a3f8beff45fa2017ec9d0f4bece23d82cda7",
      "to": "0xa705cce8df361827f2d210b105a17e91c6fc964a",
      "contractAddress": null,
      "l1BaseFeeScalar": "0x44d",
      "l1BlobBaseFee": "0x45",
      "l1BlobBaseFeeScalar": "0xa118b",
      "l1Fee": "0x11e5",
      "l1GasPrice": "0x10",
      "l1GasUsed": "0x640"
    },
    {
      "status": "0x1",
      "cumulativeGasUsed": "0x45fa3a",
      "logs": [],
      "logsBloom": "0x00000000000000000000000000000000000000000000000000000000000000000000000000000000000000000000000000000000000000000000000000000000000000000000000000000000000000000000000000000000000000000000000000000000000000000000000000000000000000000000000000000000000000000000000000000000000000000000000000000000000000000000000000000000000000000000000000000000000000000000000000000000000000000000000000000000000000000000000000000000000000000000000000000000000000000000000000000000000000000000000000000000000000000000000000000000",
      "type": "0x2",
      "transactionHash": "0xbb4ba6bd7cac766aeb91812f23858a2fb8867d9ffd99969b1dc5f5188d45f127",
      "transactionIndex": "0x13",
      "blockHash": "0x115ec2557c1f0775661e44e444c1be7e61da7d9900d863d334f3e29180e63f89",
      "blockNumber": "0x1dc9102",
      "gasUsed": "0x4722d",
      "effectiveGasPrice": "0xf42a5",
      "from": "0x2e54a3f8beff45fa2017ec9d0f4bece23d82cda7",
      "to": "0xa705cce8df361827f2d210b105a17e91c6fc964a",
      "contractAddress": null,
      "l1BaseFeeScalar": "0x44d",
      "l1BlobBaseFee": "0x45",
      "l1BlobBaseFeeScalar": "0xa118b",
      "l1Fee": "0x1220",
      "l1GasPrice": "0x10",
      "l1GasUsed": "0x654"
    }
  ],
  "libraries": [],
  "pending": [],
  "returns": {},
  "timestamp": 1758232803272,
  "chain": 84532,
  "commit": null
}