{
  "transactions": [
    {
      "hash": "0x7346879a75b577b151ea2165e673a945f91cb2163f2b5f933a0caddba039204d",
      "transactionType": "CALL",
      "contractName": null,
      "contractAddress": "0xa705cce8df361827f2d210b105a17e91c6fc964a",
      "function": "initialize(address)",
      "arguments": [
        "0x2e54a3F8Beff45fA2017eC9d0F4BEce23D82cda7"
      ],
      "transaction": {
        "from": "0x2e54a3f8beff45fa2017ec9d0f4bece23d82cda7",
        "to": "0xa705cce8df361827f2d210b105a17e91c6fc964a",
        "gas": "0x1b492",
        "value": "0x0",
        "input": "0xc4d66de80000000000000000000000002e54a3f8beff45fa2017ec9d0f4bece23d82cda7",
        "nonce": "0x7",
        "chainId": "0x14a34"
      },
      "additionalContracts": [],
      "isFixedGasLimit": false
    },
    {
      "hash": "0xa3e291ba0d17da9cd4e850d2a0cf2549b13e1bb79fa02fa83df77448d2c55ac8",
      "transactionType": "CALL",
      "contractName": null,
      "contractAddress": "0xa705cce8df361827f2d210b105a17e91c6fc964a",
      "function": "setMagicNumber(uint256)",
      "arguments": [
        "123"
      ],
      "transaction": {
        "from": "0x2e54a3f8beff45fa2017ec9d0f4bece23d82cda7",
        "to": "0xa705cce8df361827f2d210b105a17e91c6fc964a",
        "gas": "0x11628",
        "value": "0x0",
        "input": "0x2ba2ed98000000000000000000000000000000000000000000000000000000000000007b",
        "nonce": "0x8",
        "chainId": "0x14a34"
      },
      "additionalContracts": [],
      "isFixedGasLimit": false
    }
  ],
  "receipts": [
    {
      "status": "0x1",
      "cumulativeGasUsed": "0xed35d",
      "logs": [
        {
          "address": "0xa705cce8df361827f2d210b105a17e91c6fc964a",
          "topics": [
            "0x8be0079c531659141344cd1fd0a4f28419497f9722a3daafe3b4186f6b6457e0",
            "0x0000000000000000000000000000000000000000000000000000000000000000",
            "0x0000000000000000000000002e54a3f8beff45fa2017ec9d0f4bece23d82cda7"
          ],
          "data": "0x",
          "blockHash": "0x4e7e6f0a986c75764ad6ea0d3c704cdd2ec831bc2072b945f81244114cfd429b",
          "blockNumber": "0x1dc8fc4",
          "blockTimestamp": "0x68cc7e68",
          "transactionHash": "0x7346879a75b577b151ea2165e673a945f91cb2163f2b5f933a0caddba039204d",
          "transactionIndex": "0x7",
          "logIndex": "0x8",
          "removed": false
        },
        {
          "address": "0xa705cce8df361827f2d210b105a17e91c6fc964a",
          "topics": [
            "0xc7f505b2f371ae2175ee4913f4499e1f2633a7b5936321eed1cdaeb6115181d2"
          ],
          "data": "0x0000000000000000000000000000000000000000000000000000000000000001",
          "blockHash": "0x4e7e6f0a986c75764ad6ea0d3c704cdd2ec831bc2072b945f81244114cfd429b",
          "blockNumber": "0x1dc8fc4",
          "blockTimestamp": "0x68cc7e68",
          "transactionHash": "0x7346879a75b577b151ea2165e673a945f91cb2163f2b5f933a0caddba039204d",
          "transactionIndex": "0x7",
          "logIndex": "0x9",
          "removed": false
        }
      ],
      "logsBloom": "0x00000000010000000008000000000000000000000000000000800000000000000000000000000000000000000000000000000000000000000000000000000000000000000000000000000000000000000001000000000000000000000000000000000000020000000000000000000800000000000000000000000000000000400000000000000000000800000000000000000000000080000000000000000000000000000000000000000000000000000000000000000000000000000000000000000020000000000000002000000000000004000004000000000000000020000000000000000000000000000000000000000001000000000000000000000000",
      "type": "0x2",
      "transactionHash": "0x7346879a75b577b151ea2165e673a945f91cb2163f2b5f933a0caddba039204d",
      "transactionIndex": "0x7",
      "blockHash": "0x4e7e6f0a986c75764ad6ea0d3c704cdd2ec831bc2072b945f81244114cfd429b",
      "blockNumber": "0x1dc8fc4",
      "gasUsed": "0x12a83",
      "effectiveGasPrice": "0xf42b5",
      "from": "0x2e54a3f8beff45fa2017ec9d0f4bece23d82cda7",
      "to": "0xa705cce8df361827f2d210b105a17e91c6fc964a",
      "contractAddress": null,
      "l1BaseFeeScalar": "0x44d",
      "l1BlobBaseFee": "0x89",
      "l1BlobBaseFeeScalar": "0xa118b",
      "l1Fee": "0x236f",
      "l1GasPrice": "0x12",
      "l1GasUsed": "0x640"
    },
    {
      "status": "0x1",
      "cumulativeGasUsed": "0x32367c",
      "logs": [],
      "logsBloom": "0x00000000000000000000000000000000000000000000000000000000000000000000000000000000000000000000000000000000000000000000000000000000000000000000000000000000000000000000000000000000000000000000000000000000000000000000000000000000000000000000000000000000000000000000000000000000000000000000000000000000000000000000000000000000000000000000000000000000000000000000000000000000000000000000000000000000000000000000000000000000000000000000000000000000000000000000000000000000000000000000000000000000000000000000000000000000",
      "type": "0x2",
      "transactionHash": "0xa3e291ba0d17da9cd4e850d2a0cf2549b13e1bb79fa02fa83df77448d2c55ac8",
      "transactionIndex": "0xc",
      "blockHash": "0x866275cfecfde4f0f7c838cce055725f27c80e18fd7301196b705e9963f8a3fd",
      "blockNumber": "0x1dc8fc4",
      "gasUsed": "0xbe32",
      "effectiveGasPrice": "0xf42b5",
      "from": "0x2e54a3f8beff45fa2017ec9d0f4bece23d82cda7",
      "to": "0xa705cce8df361827f2d210b105a17e91c6fc964a",
      "contractAddress": null,
      "l1BaseFeeScalar": "0x44d",
      "l1BlobBaseFee": "0x89",
      "l1BlobBaseFeeScalar": "0xa118b",
      "l1Fee": "0x236f",
      "l1GasPrice": "0x12",
      "l1GasUsed": "0x640"
    }
  ],
  "libraries": [],
  "pending": [],
  "returns": {},
  "timestamp": 1758232167170,
  "chain": 84532,
  "commit": null
}