{
  "transactions": [
    {
      "hash": "0x449245674a0c09f2d54e7b6b507a5725cc275c0139fbfa53478586fa89d2f243",
      "transactionType": "CALL",
      "contractName": null,
      "contractAddress": "0xa705cce8df361827f2d210b105a17e91c6fc964a",
      "function": "upgradeToAndCall(address,bytes)",
      "arguments": [
        "0xB99B95983219F3BE75f86B9f9e107b75Dbd8A3f9",
        "0x"
      ],
      "transaction": {
        "from": "0x2e54a3f8beff45fa2017ec9d0f4bece23d82cda7",
        "to": "0xa705cce8df361827f2d210b105a17e91c6fc964a",
        "gas": "0xd039",
        "value": "0x0",
        "input": "0x4f1ef286000000000000000000000000b99b95983219f3be75f86b9f9e107b75dbd8a3f900000000000000000000000000000000000000000000000000000000000000400000000000000000000000000000000000000000000000000000000000000000",
        "nonce": "0xa",
        "chainId": "0x14a34"
      },
      "additionalContracts": [],
      "isFixedGasLimit": false
    }
  ],
  "receipts": [
    {
      "status": "0x1",
      "cumulativeGasUsed": "0x94c7cc",
      "logs": [
        {
          "address": "0xa705cce8df361827f2d210b105a17e91c6fc964a",
          "topics": [
            "0xbc7cd75a20ee27fd9adebab32041f755214dbc6bffa90cc0225b39da2e5c2d3b",
            "0x000000000000000000000000b99b95983219f3be75f86b9f9e107b75dbd8a3f9"
          ],
          "data": "0x",
          "blockHash": "0x980ae924eba581b192cfa18f3b979afdc7962f9fae92be3cf7a7aa684a599896",
          "blockNumber": "0x1dc909d",
          "blockTimestamp": "0x68cc801a",
          "transactionHash": "0x449245674a0c09f2d54e7b6b507a5725cc275c0139fbfa53478586fa89d2f243",
          "transactionIndex": "0xe",
          "logIndex": "0x13d",
          "removed": false
        }
      ],
      "logsBloom": "0x00000000010000000008000000000000400000000000000000000000000000000000000800000000000000000000000000000000000000000000000000000000000000000000000000000000000002000000000000000000000000040000000000000000000000000000000000000000000000000000000000000000000000000000000000000000000000000000000000000000000000000000000000000000000000000000000000000000000000000000020000000000000000000000000000000020000000000000000000000000000000000000000000000000000000000000000000000000000000000000000000000000000000000000000000000000",
      "type": "0x2",
      "transactionHash": "0x449245674a0c09f2d54e7b6b507a5725cc275c0139fbfa53478586fa89d2f243",
      "transactionIndex": "0xe",
      "blockHash": "0x980ae924eba581b192cfa18f3b979afdc7962f9fae92be3cf7a7aa684a599896",
      "blockNumber": "0x1dc909d",
      "gasUsed": "0x96c0",
      "effectiveGasPrice": "0xf42b3",
      "from": "0x2e54a3f8beff45fa2017ec9d0f4bece23d82cda7",
      "to": "0xa705cce8df361827f2d210b105a17e91c6fc964a",
      "contractAddress": null,
      "l1BaseFeeScalar": "0x44d",
      "l1BlobBaseFee": "0x53",
      "l1BlobBaseFeeScalar": "0xa118b",
      "l1Fee": "0x1584",
      "l1GasPrice": "0x12",
      "l1GasUsed": "0x640"
    }
  ],
  "libraries": [],
  "pending": [],
  "returns": {},
  "timestamp": 1758232601836,
  "chain": 84532,
  "commit": null
}