{
  "transactions": [
    {
      "hash": "0xcdd71d1650ea2a55aa1c03a76c99b032968a1e2ca3f9197d15def98d76463b78",
      "transactionType": "CALL",
      "contractName": null,
      "contractAddress": "0x88eb5ca0b46cfaa3e3fda051feebfb708aff2f3d",
      "function": "initialize(address)",
      "arguments": [
        "0x1804c8AB1F12E6bbf3894d4083f33e07309d1f38"
      ],
      "transaction": {
        "from": "0x2e54a3f8beff45fa2017ec9d0f4bece23d82cda7",
        "to": "0x88eb5ca0b46cfaa3e3fda051feebfb708aff2f3d",
        "gas": "0x1b492",
        "value": "0x0",
        "input": "0xc4d66de80000000000000000000000001804c8ab1f12e6bbf3894d4083f33e07309d1f38",
        "nonce": "0x2",
        "chainId": "0x14a34"
      },
      "additionalContracts": [],
      "isFixedGasLimit": false
    }
  ],
  "receipts": [
    {
      "status": "0x1",
      "cumulativeGasUsed": "0x92333c",
      "logs": [
        {
          "address": "0x88eb5ca0b46cfaa3e3fda051feebfb708aff2f3d",
          "topics": [
            "0x8be0079c531659141344cd1fd0a4f28419497f9722a3daafe3b4186f6b6457e0",
            "0x0000000000000000000000000000000000000000000000000000000000000000",
            "0x0000000000000000000000001804c8ab1f12e6bbf3894d4083f33e07309d1f38"
          ],
          "data": "0x",
          "blockHash": "0xabd232a4c0b273d6095e2326a0ab2b19575f1695018fa7b14a3988129c98eb4f",
          "blockNumber": "0x1dc4d78",
          "blockTimestamp": "0x68cbf9d0",
          "transactionHash": "0xcdd71d1650ea2a55aa1c03a76c99b032968a1e2ca3f9197d15def98d76463b78",
          "transactionIndex": "0xf",
          "logIndex": "0x93",
          "removed": false
        },
        {
          "address": "0x88eb5ca0b46cfaa3e3fda051feebfb708aff2f3d",
          "topics": [
            "0xc7f505b2f371ae2175ee4913f4499e1f2633a7b5936321eed1cdaeb6115181d2"
          ],
          "data": "0x0000000000000000000000000000000000000000000000000000000000000001",
          "blockHash": "0xabd232a4c0b273d6095e2326a0ab2b19575f1695018fa7b14a3988129c98eb4f",
          "blockNumber": "0x1dc4d78",
          "blockTimestamp": "0x68cbf9d0",
          "transactionHash": "0xcdd71d1650ea2a55aa1c03a76c99b032968a1e2ca3f9197d15def98d76463b78",
          "transactionIndex": "0xf",
          "logIndex": "0x94",
          "removed": false
        }
      ],
      "logsBloom": "0x00000000000000000000000000000000000000000000000000800000000000000000000000000000000000000000000000000000000000000000000000000000000000000000000000000000000000000001000000000000000000000000000000000000020000000001000001000800000000000000000000000000000000400000000000000000000804000000000000000000000080000000000000000000000000000000000000000000000000000000000000000000001000000080000000000000000004000000000000000000000000000004000000000000000020000000000000000000000000000000000000000000000000000000000000000000",
      "type": "0x2",
      "transactionHash": "0xcdd71d1650ea2a55aa1c03a76c99b032968a1e2ca3f9197d15def98d76463b78",
      "transactionIndex": "0xf",
      "blockHash": "0xabd232a4c0b273d6095e2326a0ab2b19575f1695018fa7b14a3988129c98eb4f",
      "blockNumber": "0x1dc4d78",
      "gasUsed": "0x12a83",
      "effectiveGasPrice": "0xf42ba",
      "from": "0x2e54a3f8beff45fa2017ec9d0f4bece23d82cda7",
      "to": "0x88eb5ca0b46cfaa3e3fda051feebfb708aff2f3d",
      "contractAddress": null,
      "l1BaseFeeScalar": "0x44d",
      "l1BlobBaseFee": "0x5249c0bcb",
      "l1BlobBaseFeeScalar": "0xa118b",
      "l1Fee": "0x1535d37e27b",
      "l1GasPrice": "0x57f153",
      "l1GasUsed": "0x640"
    }
  ],
  "libraries": [],
  "pending": [],
  "returns": {},
  "timestamp": 1758198223634,
  "chain": 84532,
  "commit": null
}