{
  "transactions": [
    {
      "hash": "0xbef36d21f62562c8095ad756f3ca45605a12baeb0a1dc7fbf03122dc99d52124",
      "transactionType": "CALL",
      "contractName": null,
      "contractAddress": "0xa705cce8df361827f2d210b105a17e91c6fc964a",
      "function": "setMagicString(string)",
      "arguments": [
        "Ab kare so aaj kar, aaj kare so kal"
      ],
      "transaction": {
        "from": "0x2e54a3f8beff45fa2017ec9d0f4bece23d82cda7",
        "to": "0xa705cce8df361827f2d210b105a17e91c6fc964a",
        "gas": "0x200cf",
        "value": "0x0",
        "input": "0x080d1d1d000000000000000000000000000000000000000000000000000000000000002000000000000000000000000000000000000000000000000000000000000000234162206b61726520736f2061616a206b61722c2061616a206b61726520736f206b616c0000000000000000000000000000000000000000000000000000000000",
        "nonce": "0xb",
        "chainId": "0x14a34"
      },
      "additionalContracts": [],
      "isFixedGasLimit": false
    }
  ],
  "receipts": [
    {
      "status": "0x1",
      "cumulativeGasUsed": "0xc82363",
      "logs": [],
      "logsBloom": "0x00000000000000000000000000000000000000000000000000000000000000000000000000000000000000000000000000000000000000000000000000000000000000000000000000000000000000000000000000000000000000000000000000000000000000000000000000000000000000000000000000000000000000000000000000000000000000000000000000000000000000000000000000000000000000000000000000000000000000000000000000000000000000000000000000000000000000000000000000000000000000000000000000000000000000000000000000000000000000000000000000000000000000000000000000000000",
      "type": "0x2",
      "transactionHash": "0xbef36d21f62562c8095ad756f3ca45605a12baeb0a1dc7fbf03122dc99d52124",
      "transactionIndex": "0x13",
      "blockHash": "0x7ffe8883899ab79bdca6752bcb7aedd145b59248c0d12a82477a105c8ef517f6",
      "blockNumber": "0x1dc90c1",
      "gasUsed": "0x17344",
      "effectiveGasPrice": "0xf42af",
      "from": "0x2e54a3f8beff45fa2017ec9d0f4bece23d82cda7",
      "to": "0xa705cce8df361827f2d210b105a17e91c6fc964a",
      "contractAddress": null,
      "l1BaseFeeScalar": "0x44d",
      "l1BlobBaseFee": "0x43",
      "l1BlobBaseFeeScalar": "0xa118b",
      "l1Fee": "0x1164",
      "l1GasPrice": "0x12",
      "l1GasUsed": "0x640"
    }
  ],
  "libraries": [],
  "pending": [],
  "returns": {},
  "timestamp": 1758232674174,
  "chain": 84532,
  "commit": null
}