{
  "transactions": [
    {
      "hash": "0xd52c34314960525c62d51eb40447710d98fb0eae927879cdee40bd2c01004546",
      "transactionType": "CALL",
      "contractName": null,
      "contractAddress": "0x622fcfa48231e93f5d1a9ef993461f048bd7a812",
      "function": "setMagicString(string)",
      "arguments": [
        "Ab kare so aaj kar, aaj kare so kal, Ab kare so aaj kar, aaj kare so kal, Ab kare so aaj kar, aaj kare so kal, Ab kare so aaj kar, aaj kare so kal, Ab kare so aaj kar, aaj kare so kal, Ab kare so aaj kar, aaj kare so kal, Ab kare so aaj kar, aaj kare so kal, Ab kare so aaj kar, aaj kare so kal, Ab kare so aaj kar, aaj kare so kal, Ab kare so aaj kar, aaj kare so kal, Ab kare so aaj kar, aaj kare so kal"
      ],
      "transaction": {
        "from": "0x2e54a3f8beff45fa2017ec9d0f4bece23d82cda7",
        "to": "0x622fcfa48231e93f5d1a9ef993461f048bd7a812",
        "gas": "0x7b3ea",
        "value": "0x0",
        "input": "0x080d1d1d000000000000000000000000000000000000000000000000000000000000002000000000000000000000000000000000000000000000000000000000000001954162206b61726520736f2061616a206b61722c2061616a206b61726520736f206b616c2c204162206b61726520736f2061616a206b61722c2061616a206b61726520736f206b616c2c204162206b61726520736f2061616a206b61722c2061616a206b61726520736f206b616c2c204162206b61726520736f2061616a206b61722c2061616a206b61726520736f206b616c2c204162206b61726520736f2061616a206b61722c2061616a206b61726520736f206b616c2c204162206b61726520736f2061616a206b61722c2061616a206b61726520736f206b616c2c204162206b61726520736f2061616a206b61722c2061616a206b61726520736f206b616c2c204162206b61726520736f2061616a206b61722c2061616a206b61726520736f206b616c2c204162206b61726520736f2061616a206b61722c2061616a206b61726520736f206b616c2c204162206b61726520736f2061616a206b61722c2061616a206b61726520736f206b616c2c204162206b61726520736f2061616a206b61722c2061616a206b61726520736f206b616c0000000000000000000000",
        "nonce": "0x16",
        "chainId": "0x14a34"
      },
      "additionalContracts": [],
      "isFixedGasLimit": false
    }
  ],
  "receipts": [
    {
      "status": "0x1",
      "cumulativeGasUsed": "0x38fd31",
      "logs": [],
      "logsBloom": "0x00000000000000000000000000000000000000000000000000000000000000000000000000000000000000000000000000000000000000000000000000000000000000000000000000000000000000000000000000000000000000000000000000000000000000000000000000000000000000000000000000000000000000000000000000000000000000000000000000000000000000000000000000000000000000000000000000000000000000000000000000000000000000000000000000000000000000000000000000000000000000000000000000000000000000000000000000000000000000000000000000000000000000000000000000000000",
      "type": "0x2",
      "transactionHash": "0xd52c34314960525c62d51eb40447710d98fb0eae927879cdee40bd2c01004546",
      "transactionIndex": "0xa",
      "blockHash": "0xc8f5267998b6df893f73b26a79dc18d2fc3c3b7d66b61366f1726309885c6fa3",
      "blockNumber": "0x1dce4dd",
      "gasUsed": "0x54452",
      "effectiveGasPrice": "0xecd84",
      "from": "0x2e54a3f8beff45fa2017ec9d0f4bece23d82cda7",
      "to": "0x622fcfa48231e93f5d1a9ef993461f048bd7a812",
      "contractAddress": null,
      "l1BaseFeeScalar": "0x44d",
      "l1BlobBaseFee": "0x2e43fd191",
      "l1BlobBaseFeeScalar": "0xa118b",
      "l1Fee": "0xc144b3eb4c",
      "l1GasPrice": "0x25ea",
      "l1GasUsed": "0x654"
    }
  ],
  "libraries": [],
  "pending": [],
  "returns": {},
  "timestamp": 1758275737012,
  "chain": 84532,
  "commit": "8292d2d"
}