{
  "transactions": [
    {
      "hash": "0x35c076b571280ab94bdfc3b63bd72607188de02c5770b2740baf1713137d998a",
      "transactionType": "CALL",
      "contractName": null,
      "contractAddress": "0x0000000000000000000000000000000000000000",
      "function": "initialize(address)",
      "arguments": [
        "0x2e54a3F8Beff45fA2017eC9d0F4BEce23D82cda7"
      ],
      "transaction": {
        "from": "0x2e54a3f8beff45fa2017ec9d0f4bece23d82cda7",
        "to": "0x0000000000000000000000000000000000000000",
        "gas": "0x7722",
        "value": "0x0",
        "input": "0xc4d66de80000000000000000000000002e54a3f8beff45fa2017ec9d0f4bece23d82cda7",
        "nonce": "0x13",
        "chainId": "0x14a34"
      },
      "additionalContracts": [],
      "isFixedGasLimit": false
    }
  ],
  "receipts": [
    {
      "status": "0x1",
      "cumulativeGasUsed": "0x73af2b",
      "logs": [],
      "logsBloom": "0x00000000000000000000000000000000000000000000000000000000000000000000000000000000000000000000000000000000000000000000000000000000000000000000000000000000000000000000000000000000000000000000000000000000000000000000000000000000000000000000000000000000000000000000000000000000000000000000000000000000000000000000000000000000000000000000000000000000000000000000000000000000000000000000000000000000000000000000000000000000000000000000000000000000000000000000000000000000000000000000000000000000000000000000000000000000",
      "type": "0x2",
      "transactionHash": "0x35c076b571280ab94bdfc3b63bd72607188de02c5770b2740baf1713137d998a",
      "transactionIndex": "0xf",
      "blockHash": "0x6ab93667653dd753dc7a3a7f4c7143adc65397c7ac363f689e29e44020b8f044",
      "blockNumber": "0x1dce3fe",
      "gasUsed": "0x5640",
      "effectiveGasPrice": "0xecf42",
      "from": "0x2e54a3f8beff45fa2017ec9d0f4bece23d82cda7",
      "to": "0x0000000000000000000000000000000000000000",
      "contractAddress": null,
      "l1BaseFeeScalar": "0x44d",
      "l1BlobBaseFee": "0x7d164eb52",
      "l1BlobBaseFeeScalar": "0xa118b",
      "l1Fee": "0x203de32d941",
      "l1GasPrice": "0x2b57",
      "l1GasUsed": "0x640"
    }
  ],
  "libraries": [],
  "pending": [],
  "returns": {},
  "timestamp": 1758275291151,
  "chain": 84532,
  "commit": "8292d2d"
}