{
  "transactions": [
    {
      "hash": "0x6b1dc8ae20ea4c54d2afcda080938a079f9dc025abf748cdd3ff5aa87a2b1413",
      "transactionType": "CALL",
      "contractName": null,
      "contractAddress": "0x622fcfa48231e93f5d1a9ef993461f048bd7a812",
      "function": "initialize(address)",
      "arguments": [
        "0x2e54a3F8Beff45fA2017eC9d0F4BEce23D82cda7"
      ],
      "transaction": {
        "from": "0x2e54a3f8beff45fa2017ec9d0f4bece23d82cda7",
        "to": "0x622fcfa48231e93f5d1a9ef993461f048bd7a812",
        "gas": "0x1b492",
        "value": "0x0",
        "input": "0xc4d66de80000000000000000000000002e54a3f8beff45fa2017ec9d0f4bece23d82cda7",
        "nonce": "0x14",
        "chainId": "0x14a34"
      },
      "additionalContracts": [],
      "isFixedGasLimit": false
    }
  ],
  "receipts": [
    {
      "status": "0x1",
      "cumulativeGasUsed": "0x46e78e",
      "logs": [
        {
          "address": "0x622fcfa48231e93f5d1a9ef993461f048bd7a812",
          "topics": [
            "0x8be0079c531659141344cd1fd0a4f28419497f9722a3daafe3b4186f6b6457e0",
            "0x0000000000000000000000000000000000000000000000000000000000000000",
            "0x0000000000000000000000002e54a3f8beff45fa2017ec9d0f4bece23d82cda7"
          ],
          "data": "0x",
          "blockHash": "0x27fa1c4237eeadf1729a53c66cb6900d495c0d356de7379ba7ca3f75231ff7f0",
          "blockNumber": "0x1dce444",
          "blockTimestamp": "0x68cd2768",
          "transactionHash": "0x6b1dc8ae20ea4c54d2afcda080938a079f9dc025abf748cdd3ff5aa87a2b1413",
          "transactionIndex": "0xe",
          "logIndex": "0x88",
          "removed": false
        },
        {
          "address": "0x622fcfa48231e93f5d1a9ef993461f048bd7a812",
          "topics": [
            "0xc7f505b2f371ae2175ee4913f4499e1f2633a7b5936321eed1cdaeb6115181d2"
          ],
          "data": "0x0000000000000000000000000000000000000000000000000000000000000001",
          "blockHash": "0x27fa1c4237eeadf1729a53c66cb6900d495c0d356de7379ba7ca3f75231ff7f0",
          "blockNumber": "0x1dce444",
          "blockTimestamp": "0x68cd2768",
          "transactionHash": "0x6b1dc8ae20ea4c54d2afcda080938a079f9dc025abf748cdd3ff5aa87a2b1413",
          "transactionIndex": "0xe",
          "logIndex": "0x89",
          "removed": false
        }
      ],
      "logsBloom": "0x00000000000000000000000000000000000000000000000000800000000000000000000000000000000000000000000000000000000000000000000000000000000000000000010000000000000000000001000000000000000000000000000000000000020200000000004000000800000000000000000000000000000000400000000000000000000800000000000000000000000080000000000000000000000000000000000000000000000000000000000000000000000000000000000000000000000000000000002000000000000004000004000000000000000020000000000000000000000000000000000000000001000000000000000000000000",
      "type": "0x2",
      "transactionHash": "0x6b1dc8ae20ea4c54d2afcda080938a079f9dc025abf748cdd3ff5aa87a2b1413",
      "transactionIndex": "0xe",
      "blockHash": "0x27fa1c4237eeadf1729a53c66cb6900d495c0d356de7379ba7ca3f75231ff7f0",
      "blockNumber": "0x1dce444",
      "gasUsed": "0x12a83",
      "effectiveGasPrice": "0xf081e",
      "from": "0x2e54a3f8beff45fa2017ec9d0f4bece23d82cda7",
      "to": "0x622fcfa48231e93f5d1a9ef993461f048bd7a812",
      "contractAddress": null,
      "l1BaseFeeScalar": "0x44d",
      "l1BlobBaseFee": "0x6dbe3028c",
      "l1BlobBaseFeeScalar": "0xa118b",
      "l1Fee": "0x1c4965d49e6",
      "l1GasPrice": "0x29a3",
      "l1GasUsed": "0x640"
    }
  ],
  "libraries": [],
  "pending": [],
  "returns": {},
  "timestamp": 1758275431018,
  "chain": 84532,
  "commit": "8292d2d"
}