{
  "transactions": [
    {
      "hash": "0x524f4bc4fe99a4facaf036c535015ecbb33e5bbc158faa857bdad50c435e2ee1",
      "transactionType": "CALL",
      "contractName": null,
      "contractAddress": "0x622fcfa48231e93f5d1a9ef993461f048bd7a812",
      "function": "upgradeToAndCall(address,bytes)",
      "arguments": [
        "0x068B8Fe013773FB2c81AbeAe35039015C63FB1C7",
        "0x"
      ],
      "transaction": {
        "from": "0x2e54a3f8beff45fa2017ec9d0f4bece23d82cda7",
        "to": "0x622fcfa48231e93f5d1a9ef993461f048bd7a812",
        "gas": "0xd039",
        "value": "0x0",
        "input": "0x4f1ef286000000000000000000000000068b8fe013773fb2c81abeae35039015c63fb1c700000000000000000000000000000000000000000000000000000000000000400000000000000000000000000000000000000000000000000000000000000000",
        "nonce": "0x15",
        "chainId": "0x14a34"
      },
      "additionalContracts": [],
      "isFixedGasLimit": false
    }
  ],
  "receipts": [
    {
      "status": "0x1",
      "cumulativeGasUsed": "0x1aaef2",
      "logs": [
        {
          "address": "0x622fcfa48231e93f5d1a9ef993461f048bd7a812",
          "topics": [
            "0xbc7cd75a20ee27fd9adebab32041f755214dbc6bffa90cc0225b39da2e5c2d3b",
            "0x000000000000000000000000068b8fe013773fb2c81abeae35039015c63fb1c7"
          ],
          "data": "0x",
          "blockHash": "0x2c25db770123aa3eff2b5f14c029f854331e4eb344ea3d2063be698383880178",
          "blockNumber": "0x1dce44f",
          "blockTimestamp": "0x68cd277e",
          "transactionHash": "0x524f4bc4fe99a4facaf036c535015ecbb33e5bbc158faa857bdad50c435e2ee1",
          "transactionIndex": "0x9",
          "logIndex": "0x34",
          "removed": false
        }
      ],
      "logsBloom": "0x04000000000000000000000000000000400000000000000000000000000000000000000000000000000000000000000000000000000000000000000000000000000000000080010000000000000002000000000000000400000000000000000000000000000200000000004000000000000000000000000000000000000000000000000000000000000000000000000000000000000000000000000000000000000000000000000000000000000000000000000000000000000000000000000000000020000000000000000000000000000000000000000000000000000000000000000000000000000000000000000000000000000000000000000000000000",
      "type": "0x2",
      "transactionHash": "0x524f4bc4fe99a4facaf036c535015ecbb33e5bbc158faa857bdad50c435e2ee1",
      "transactionIndex": "0x9",
      "blockHash": "0x2c25db770123aa3eff2b5f14c029f854331e4eb344ea3d2063be698383880178",
      "blockNumber": "0x1dce44f",
      "gasUsed": "0x96c0",
      "effectiveGasPrice": "0xf081f",
      "from": "0x2e54a3f8beff45fa2017ec9d0f4bece23d82cda7",
      "to": "0x622fcfa48231e93f5d1a9ef993461f048bd7a812",
      "contractAddress": null,
      "l1BaseFeeScalar": "0x44d",
      "l1BlobBaseFee": "0x5dcb28aed",
      "l1BlobBaseFeeScalar": "0xa118b",
      "l1Fee": "0x182cfabdc8e",
      "l1GasPrice": "0x2c54",
      "l1GasUsed": "0x640"
    }
  ],
  "libraries": [],
  "pending": [],
  "returns": {},
  "timestamp": 1758275453522,
  "chain": 84532,
  "commit": "8292d2d"
}